:0E0000000C944C000C9400000C9400000C9426
:10000E0000000C9400000C9400000C9400000C9462
:10001E0000000C9400000C9400000C9400000C9452
:10002E0000000C9400000C9400000C9400000C9442
:10003E0000000C9400000C9400000C9400000C9432
:10004E0000000C9400001027E80364000A00010071
:10005E0000100001100001003F0006005B004F0081
:10006E0066006D007D0007007F006F0063003900A1
:10007E0001002D4E414E00494E4600001700600112
:10008E006600010078017E000000F894EE27ECBBBC
:10009E00F1E0FBBFEBBFE5BFF8E1F1BDE1BD8DE0E7
:1000AE00A2E0BB27ED938A95E9F780E094E0A0E605
:1000BE00ED930197E9F7EAE8F0E0859195910097C5
:1000CE0061F0A591B59105901590BF01F0010590D5
:1000DE000D920197E1F7FB01F0CFEFE5EDBFE4E004
:1000EE00EEBFC0E6D1E00C948B00AA93E881E064E9
:1000FE00E7B985E28A95F1F7369A349BFECF349AAA
:10010E00E4B1F5B1219608952897EFEFE7BBE4BB74
:10011E00E1BBE0E8E8B9E0E0E0BFE0E4E7B9E4E83D
:10012E00E6B9A7E0E2DF662777270E9491010E94D9
:10013E000801EAE9F9E96CE473E40E940D020E94F9
:10014E000801A030E0E0BE07E0EA8E07E0E49E077B
:10015E0009F4A89AAC81BD818E819F81E0E0F0E028
:10016E0068EC72E40E94BF01EC83FD836E837F8393
:10017E00DE010E945A01ED93FC930E9411010E9430
:10018E007B028F010E9411010E9416010E947B02C8
:10019E009F010E9411010E9416010E947B02AF0175
:1001AE000E9411010E9416010E947B02EA83FB83CA
:1001BE00C09AC198C298C3980E941B010E94250143
:1001CE00C19AC298C398FA010E941B0197980E9487
:1001DE002501C198C29AC398F9010E941B010E9481
:1001EE002501C198C298C39AF8010E941B010E9472
:1001FE002501C198C298C39888EB8A95F1F791CFE3
:10020E00FFCFEC83FD836E837F83AC81BD818E81B6
:10021E009F810895A881B981EAE0F0E008950E94D7
:10022E007602E883F983F6CFA0E6B1E0EE0FFF1F6A
:10023E00AE0FBF1FEC91E095E2BB089584EA98E003
:10024E000197F1F7C0980895552342F4503811F4F0
:10025E00E0FF04C03196691F791F6BF050E85727F5
:10026E0011F45F9373C05F3F31F0660F000C57952A
:10027E006795752F08955F9300200AF073C06CC0C8
:10028E0050E8192E1522880F991F9527550F87951F
:10029E0050E8072E0522660F771F7527550F6795B5
:1002AE000895689401C0E8945F93F2DF703818F0F7
:1002BE007F3F08F44BC056E1571BAAF451955830B6
:1002CE000EF4593030F0EFEFFFEF6FEF7FE777F975
:1002DE001AC077275523B9F0EE0FFF1F661F771F41
:1002EE005A95D1F710C07727583028F0EF2FF62FF8
:1002FE00672F5850F9CF552331F076956795F795BE
:10030E00E7955A95D1F700200AF4C9D05F91089568
:10031E00689401C0E894309760407040B1F00024BA
:10032E0026F0772312F40094BAD0172E7EE1112016
:10033E0032F07A95EE0FFF1F661F111CF9CFEF2FCB
:10034E00F62F612D5F938ADF5F910895EE27FF27C9
:10035E00662777275F910895EFEFFFEF6FE77FEF47
:10036E005F910895EFEFFFEF6FE77FE75F910895DD
:10037E005F9386DF703851F3903841F3012408946F
:10038E00791F23F41CF300203AF3ECCF0F921F9346
:10039E002F933F934F93112722279927689FA001F0
:1003AE008F9F302D410D591F6B9F300D411D591FD1
:1003BE008E9F27D0BF9F25D06A9F23D0BE9F1DD072
:1003CE00AF9F1BD0AE9F110D291F391F491F591FFB
:1003DE00E32FF42F652F522F4F913F912F911F91A5
:1003EE000F9066232AF0550FEE1FFF1F661F02C0E7
:1003FE0073954BF229DF5F910895100D211D391F62
:10040E0002C0200D311D491F591F08955F9338DF1B
:10041E00703821F411200AF49FCFA4CF903809F43C
:10042E0095CF01240894970B1BF4D4F30020F3CF3F
:10043E00792F1F932F933F934F9311241127222728
:10044E0033274427552790E2AE17BF07860741078B
:10045E0030F0AE1BBF0B860B410B089401C0889485
:10046E00551F221F331F111CAA1FBB1F881F441F9D
:10047E009A9551F7F901612D4F913F912F911F914F
:10048E00662332F0550FEE1FFF1F661F7A9543F25B
:10049E00DBDE5F910895F195E195F0400895F095BA
:1004AE0060957095E195FF4F6F4F7F4F08956F2FB9
:1004BE00660F660B762F08950024112490E1AA0F83
:1004CE00BB1F001C111C0E1A1F0A18F40E0E1F1E45
:1004DE0001C0A1609A9599F7FD01D001089512D03F
:1004EE00EBDF0EF4D8DF0895E894B7FF04C0A095B3
:1004FE00B09511966894F7FDCEDFDEDFFD010EF4A8
:10050E00CADF0895E894F7FF02C0C5DF6894B7FF0D
:10051E0006C0A095B095119600F8039400FA0895C0
:00000001FF
